{
  "contractName": "Faucet",
  "abi": [
    {
      "inputs": [
        {
          "internalType": "address",
          "name": "tokenAddress",
          "type": "address"
        }
      ],
      "stateMutability": "payable",
      "type": "constructor",
      "payable": true
    },
    {
      "anonymous": false,
      "inputs": [
        {
          "indexed": true,
          "internalType": "address",
          "name": "from",
          "type": "address"
        },
        {
          "indexed": false,
          "internalType": "uint256",
          "name": "amount",
          "type": "uint256"
        }
      ],
      "name": "Deposit",
      "type": "event"
    },
    {
      "anonymous": false,
      "inputs": [
        {
          "indexed": true,
          "internalType": "address",
          "name": "to",
          "type": "address"
        },
        {
          "indexed": true,
          "internalType": "uint256",
          "name": "amount",
          "type": "uint256"
        }
      ],
      "name": "Withdrawl",
      "type": "event"
    },
    {
      "inputs": [],
      "name": "lockTime",
      "outputs": [
        {
          "internalType": "uint256",
          "name": "",
          "type": "uint256"
        }
      ],
      "stateMutability": "view",
      "type": "function",
      "constant": true
    },
    {
      "inputs": [],
      "name": "token",
      "outputs": [
        {
          "internalType": "contract IERC20",
          "name": "",
          "type": "address"
        }
      ],
      "stateMutability": "view",
      "type": "function",
      "constant": true
    },
    {
      "inputs": [],
      "name": "withdrawlAmount",
      "outputs": [
        {
          "internalType": "uint256",
          "name": "",
          "type": "uint256"
        }
      ],
      "stateMutability": "view",
      "type": "function",
      "constant": true
    },
    {
      "stateMutability": "payable",
      "type": "receive",
      "payable": true
    },
    {
      "inputs": [],
      "name": "requestTokens",
      "outputs": [],
      "stateMutability": "nonpayable",
      "type": "function"
    },
    {
      "inputs": [],
      "name": "getBalance",
      "outputs": [
        {
          "internalType": "uint256",
          "name": "",
          "type": "uint256"
        }
      ],
      "stateMutability": "view",
      "type": "function",
      "constant": true
    },
    {
      "inputs": [
        {
          "internalType": "uint256",
          "name": "amount",
          "type": "uint256"
        }
      ],
      "name": "setWithdrawlAmount",
      "outputs": [],
      "stateMutability": "nonpayable",
      "type": "function"
    },
    {
      "inputs": [
        {
          "internalType": "uint256",
          "name": "newLockTime",
          "type": "uint256"
        }
      ],
      "name": "setLockTime",
      "outputs": [],
      "stateMutability": "nonpayable",
      "type": "function"
    },
    {
      "inputs": [],
      "name": "withdrawl",
      "outputs": [],
      "stateMutability": "nonpayable",
      "type": "function"
    }
  ],
  "bytecode": "0x60806040526802b5e3af16b1880000600255603c60035560405161103e38038061103e83398181016040528101906100379190610121565b80600160006101000a81548173ffffffffffffffffffffffffffffffffffffffff021916908373ffffffffffffffffffffffffffffffffffffffff160217905550336000806101000a81548173ffffffffffffffffffffffffffffffffffffffff021916908373ffffffffffffffffffffffffffffffffffffffff1602179055505061014e565b600080fd5b600073ffffffffffffffffffffffffffffffffffffffff82169050919050565b60006100ee826100c3565b9050919050565b6100fe816100e3565b811461010957600080fd5b50565b60008151905061011b816100f5565b92915050565b600060208284031215610137576101366100be565b5b60006101458482850161010c565b91505092915050565b610ee18061015d6000396000f3fe60806040526004361061007f5760003560e01c80633aedfb8b1161004e5780633aedfb8b14610171578063ae04d45d14610188578063f4644300146101b1578063fc0c546a146101da576100d4565b80630967294f146100d95780630d6680871461010457806312065fe01461012f578063359cf2b71461015a576100d4565b366100d4573373ffffffffffffffffffffffffffffffffffffffff167fe1fffcc4923d04b559f4d29a8bfc6cda04eb5b0d3c460751c2402c5c5cc9109c346040516100ca91906109b4565b60405180910390a2005b600080fd5b3480156100e557600080fd5b506100ee610205565b6040516100fb91906109b4565b60405180910390f35b34801561011057600080fd5b5061011961020b565b60405161012691906109b4565b60405180910390f35b34801561013b57600080fd5b50610144610211565b60405161015191906109b4565b60405180910390f35b34801561016657600080fd5b5061016f6102b4565b005b34801561017d57600080fd5b5061018661057b565b005b34801561019457600080fd5b506101af60048036038101906101aa9190610a00565b610826565b005b3480156101bd57600080fd5b506101d860048036038101906101d39190610a00565b6108ca565b005b3480156101e657600080fd5b506101ef610975565b6040516101fc9190610aac565b60405180910390f35b60025481565b60035481565b6000600160009054906101000a900473ffffffffffffffffffffffffffffffffffffffff1673ffffffffffffffffffffffffffffffffffffffff166370a08231306040518263ffffffff1660e01b815260040161026e9190610ae8565b602060405180830381865afa15801561028b573d6000803e3d6000fd5b505050506040513d601f19601f820116820180604052508101906102af9190610b18565b905090565b600073ffffffffffffffffffffffffffffffffffffffff163373ffffffffffffffffffffffffffffffffffffffff1603610323576040517f08c379a000000000000000000000000000000000000000000000000000000000815260040161031a90610bc8565b60405180910390fd5b600254600160009054906101000a900473ffffffffffffffffffffffffffffffffffffffff1673ffffffffffffffffffffffffffffffffffffffff166370a08231306040518263ffffffff1660e01b81526004016103819190610ae8565b602060405180830381865afa15801561039e573d6000803e3d6000fd5b505050506040513d601f19601f820116820180604052508101906103c29190610b18565b1015610403576040517f08c379a00000000000000000000000000000000000000000000000000000000081526004016103fa90610c34565b60405180910390fd5b600460003373ffffffffffffffffffffffffffffffffffffffff1673ffffffffffffffffffffffffffffffffffffffff16815260200190815260200160002054421015610485576040517f08c379a000000000000000000000000000000000000000000000000000000000815260040161047c90610cc6565b60405180910390fd5b600354426104939190610d15565b600460003373ffffffffffffffffffffffffffffffffffffffff1673ffffffffffffffffffffffffffffffffffffffff16815260200190815260200160002081905550600160009054906101000a900473ffffffffffffffffffffffffffffffffffffffff1673ffffffffffffffffffffffffffffffffffffffff1663a9059cbb336002546040518363ffffffff1660e01b8152600401610535929190610d49565b6020604051808303816000875af1158015610554573d6000803e3d6000fd5b505050506040513d601f19601f820116820180604052508101906105789190610daa565b50565b60008054906101000a900473ffffffffffffffffffffffffffffffffffffffff1673ffffffffffffffffffffffffffffffffffffffff163373ffffffffffffffffffffffffffffffffffffffff1614610609576040517f08c379a000000000000000000000000000000000000000000000000000000000815260040161060090610e49565b60405180910390fd5b600160009054906101000a900473ffffffffffffffffffffffffffffffffffffffff1673ffffffffffffffffffffffffffffffffffffffff1663a9059cbb33600160009054906101000a900473ffffffffffffffffffffffffffffffffffffffff1673ffffffffffffffffffffffffffffffffffffffff166370a08231306040518263ffffffff1660e01b81526004016106a39190610ae8565b602060405180830381865afa1580156106c0573d6000803e3d6000fd5b505050506040513d601f19601f820116820180604052508101906106e49190610b18565b6040518363ffffffff1660e01b8152600401610701929190610d49565b6020604051808303816000875af1158015610720573d6000803e3d6000fd5b505050506040513d601f19601f820116820180604052508101906107449190610daa565b50600160009054906101000a900473ffffffffffffffffffffffffffffffffffffffff1673ffffffffffffffffffffffffffffffffffffffff166370a08231306040518263ffffffff1660e01b81526004016107a09190610ae8565b602060405180830381865afa1580156107bd573d6000803e3d6000fd5b505050506040513d601f19601f820116820180604052508101906107e19190610b18565b3373ffffffffffffffffffffffffffffffffffffffff167f65ac0d8bb8cbc0e989ebd02ddc5161d7c499f7c21792e43fcf170314fe6bcc3f60405160405180910390a3565b60008054906101000a900473ffffffffffffffffffffffffffffffffffffffff1673ffffffffffffffffffffffffffffffffffffffff163373ffffffffffffffffffffffffffffffffffffffff16146108b4576040517f08c379a00000000000000000000000000000000000000000000000000000000081526004016108ab90610e49565b60405180910390fd5b603c816108c19190610e69565b60038190555050565b60008054906101000a900473ffffffffffffffffffffffffffffffffffffffff1673ffffffffffffffffffffffffffffffffffffffff163373ffffffffffffffffffffffffffffffffffffffff1614610958576040517f08c379a000000000000000000000000000000000000000000000000000000000815260040161094f90610e49565b60405180910390fd5b670de0b6b3a76400008161096c9190610e69565b60028190555050565b600160009054906101000a900473ffffffffffffffffffffffffffffffffffffffff1681565b6000819050919050565b6109ae8161099b565b82525050565b60006020820190506109c960008301846109a5565b92915050565b600080fd5b6109dd8161099b565b81146109e857600080fd5b50565b6000813590506109fa816109d4565b92915050565b600060208284031215610a1657610a156109cf565b5b6000610a24848285016109eb565b91505092915050565b600073ffffffffffffffffffffffffffffffffffffffff82169050919050565b6000819050919050565b6000610a72610a6d610a6884610a2d565b610a4d565b610a2d565b9050919050565b6000610a8482610a57565b9050919050565b6000610a9682610a79565b9050919050565b610aa681610a8b565b82525050565b6000602082019050610ac16000830184610a9d565b92915050565b6000610ad282610a2d565b9050919050565b610ae281610ac7565b82525050565b6000602082019050610afd6000830184610ad9565b92915050565b600081519050610b12816109d4565b92915050565b600060208284031215610b2e57610b2d6109cf565b5b6000610b3c84828501610b03565b91505092915050565b600082825260208201905092915050565b7f5468652072657175657374206d757374206e6f74206f726967696e617465206660008201527f726f6d20696e76616c6964206164647265737321000000000000000000000000602082015250565b6000610bb2603483610b45565b9150610bbd82610b56565b604082019050919050565b60006020820190508181036000830152610be181610ba5565b9050919050565b7f496e73756666696369656e742062616c616e636520696e206661756365742100600082015250565b6000610c1e601f83610b45565b9150610c2982610be8565b602082019050919050565b60006020820190508181036000830152610c4d81610c11565b9050919050565b7f496e7375666669636965742074696d6520656c61707365642073696e6365207460008201527f6865206c6173742077697468647261776c000000000000000000000000000000602082015250565b6000610cb0603183610b45565b9150610cbb82610c54565b604082019050919050565b60006020820190508181036000830152610cdf81610ca3565b9050919050565b7f4e487b7100000000000000000000000000000000000000000000000000000000600052601160045260246000fd5b6000610d208261099b565b9150610d2b8361099b565b9250828201905080821115610d4357610d42610ce6565b5b92915050565b6000604082019050610d5e6000830185610ad9565b610d6b60208301846109a5565b9392505050565b60008115159050919050565b610d8781610d72565b8114610d9257600080fd5b50565b600081519050610da481610d7e565b92915050565b600060208284031215610dc057610dbf6109cf565b5b6000610dce84828501610d95565b91505092915050565b7f5265737472696374656420746f20546865204f776e6572204f6620546865204360008201527f6f6e747261637400000000000000000000000000000000000000000000000000602082015250565b6000610e33602783610b45565b9150610e3e82610dd7565b604082019050919050565b60006020820190508181036000830152610e6281610e26565b9050919050565b6000610e748261099b565b9150610e7f8361099b565b9250828202610e8d8161099b565b91508282048414831517610ea457610ea3610ce6565b5b509291505056fea264697066735822122079c5ff4ca14f3b306784c46a94024cde923be89d8b4546551c440845969b8e5f64736f6c63430008110033",
  "immutableReferences": {},
  "source": "//SPDX-License-Identifier: MIT\n\n\npragma solidity ^0.8.17;\n\ninterface IERC20 {\n    //all interface functions must be external beacuse it will be called from another contract\n    function transfer(address to, uint256 amount) external  returns (bool);\n    function balanceOf(address account ) external view returns (uint256);\n    event Transfer(address indexed  from ,address indexed  to, uint256 value);\n}\n\ncontract Faucet {\n    address payable owner;\n    IERC20 public token;\n    uint256 public withdrawlAmount = 50 * (10 **18);\n    uint256 public lockTime = 1 minutes;\n\n    event Withdrawl(address indexed to, uint256 indexed amount);\n    event Deposit(address indexed from, uint256 amount);\n\n    mapping(address => uint256) nextAccessTime;\n    constructor(address tokenAddress) payable{\n        token = IERC20(tokenAddress); //token now reperest a contract instance \n        //now we can call methods from ERC20.sol from here\n        owner = payable(msg.sender);\n    }\n\n    function requestTokens() public {\n        require(msg.sender != address(0), \"The request must not originate from invalid address!\");\n        require(token.balanceOf(address(this)) >= withdrawlAmount, \"Insufficient balance in faucet!\" );// the amount in the contract account must me enough to give tokens\n        require(block.timestamp  >= nextAccessTime[msg.sender], \"Insufficiet time elapsed since the last withdrawl\");\n        nextAccessTime[msg.sender] = block.timestamp + lockTime;\n        token.transfer(msg.sender, withdrawlAmount);\n    }\n\n\n    receive() external payable{// so the contract can recieve funds\n    emit Deposit(msg.sender, msg.value);\n    }\n\n    function getBalance() external view returns (uint256){\n        return token.balanceOf(address(this));\n    }\n\n    function setWithdrawlAmount(uint256 amount) public onlyOwner{\n        withdrawlAmount = amount * (10**18);\n    }\n\n    function setLockTime(uint256 newLockTime) public onlyOwner{ // takes parameteres as minutes\n        lockTime = newLockTime * 1 minutes;\n    }\n\n\n    function withdrawl() external  onlyOwner {\n        token.transfer(msg.sender, token.balanceOf(address(this)));\n        emit Withdrawl(msg.sender, token.balanceOf(address(this)));\n    }\n    modifier onlyOwner{\n        require(msg.sender == owner, \"Restricted to The Owner Of The Contract\");\n        _;\n    }\n}",
  "sourcePath": "/Users/baselkelziye/Desktop/ComputerScience/Solidity/BaselCoin/contracts/Faucet.sol",
  "compiler": {
    "name": "solc",
    "version": "0.8.17+commit.8df45f5f.Emscripten.clang"
  },
  "schemaVersion": "3.4.9",
  "updatedAt": "2022-10-12T15:54:00.999Z",
  "networkType": "ethereum",
  "devdoc": {
    "kind": "dev",
    "methods": {},
    "version": 1
  },
  "userdoc": {
    "kind": "user",
    "methods": {},
    "version": 1
  }
}