{
  "contractName": "EthWallet",
  "abi": [
    {
      "inputs": [],
      "stateMutability": "nonpayable",
      "type": "constructor"
    },
    {
      "stateMutability": "payable",
      "type": "fallback",
      "payable": true
    },
    {
      "inputs": [],
      "name": "owner",
      "outputs": [
        {
          "internalType": "address payable",
          "name": "",
          "type": "address"
        }
      ],
      "stateMutability": "view",
      "type": "function",
      "constant": true
    },
    {
      "stateMutability": "payable",
      "type": "receive",
      "payable": true
    },
    {
      "inputs": [
        {
          "internalType": "uint256",
          "name": "_amount",
          "type": "uint256"
        }
      ],
      "name": "withdrawETH",
      "outputs": [],
      "stateMutability": "nonpayable",
      "type": "function"
    },
    {
      "inputs": [],
      "name": "getBalance",
      "outputs": [
        {
          "internalType": "uint256",
          "name": "",
          "type": "uint256"
        }
      ],
      "stateMutability": "view",
      "type": "function",
      "constant": true
    }
  ],
  "bytecode": "0x608060405234801561001057600080fd5b50336000806101000a81548173ffffffffffffffffffffffffffffffffffffffff021916908373ffffffffffffffffffffffffffffffffffffffff16021790555061038b806100606000396000f3fe6080604052600436106100385760003560e01c806312065fe0146100415780638da5cb5b1461006c578063f14210a6146100975761003f565b3661003f57005b005b34801561004d57600080fd5b506100566100c0565b60405161006391906101dd565b60405180910390f35b34801561007857600080fd5b506100816100c8565b60405161008e9190610239565b60405180910390f35b3480156100a357600080fd5b506100be60048036038101906100b99190610285565b6100ec565b005b600047905090565b60008054906101000a900473ffffffffffffffffffffffffffffffffffffffff1681565b60008054906101000a900473ffffffffffffffffffffffffffffffffffffffff1673ffffffffffffffffffffffffffffffffffffffff163373ffffffffffffffffffffffffffffffffffffffff161461017a576040517f08c379a000000000000000000000000000000000000000000000000000000000815260040161017190610335565b60405180910390fd5b3373ffffffffffffffffffffffffffffffffffffffff166108fc829081150290604051600060405180830381858888f193505050501580156101c0573d6000803e3d6000fd5b5050565b6000819050919050565b6101d7816101c4565b82525050565b60006020820190506101f260008301846101ce565b92915050565b600073ffffffffffffffffffffffffffffffffffffffff82169050919050565b6000610223826101f8565b9050919050565b61023381610218565b82525050565b600060208201905061024e600083018461022a565b92915050565b600080fd5b610262816101c4565b811461026d57600080fd5b50565b60008135905061027f81610259565b92915050565b60006020828403121561029b5761029a610254565b5b60006102a984828501610270565b91505092915050565b600082825260208201905092915050565b7f4f6e6c7920746865206f776e65722063616e2077697468647261772066726f6d60008201527f20746869732077616c6c65742100000000000000000000000000000000000000602082015250565b600061031f602d836102b2565b915061032a826102c3565b604082019050919050565b6000602082019050818103600083015261034e81610312565b905091905056fea26469706673582212200a219a3f4fe176935e7bcb8e6d8db603f533a222c0c0adc6f246f734b0b2d3b164736f6c63430008100033",
  "immutableReferences": {},
  "source": "// SPDX-License-Identifier: MIT\npragma solidity ^0.8.16;\n\ncontract EthWallet {\n  address payable public owner;\n  constructor()  {\n    owner = payable(msg.sender);\n  }\n\n  receive() external payable{}\n  fallback()  external payable{}\n  function withdrawETH(uint _amount) public{\n    require(msg.sender == owner, \"Only the owner can withdraw from this wallet!\");\n    payable(msg.sender).transfer(_amount);\n  }\n  \n  function getBalance() external view returns (uint){\n    return address(this).balance;\n  }\n}\n",
  "sourcePath": "/Users/baselkelziye/Desktop/ComputerScience/Solidity/EthWallet/contracts/EthWallet.sol",
  "compiler": {
    "name": "solc",
    "version": "0.8.16+commit.07a7930e.Emscripten.clang"
  },
  "schemaVersion": "3.4.9",
  "updatedAt": "2022-09-09T18:30:37.020Z",
  "networkType": "ethereum",
  "devdoc": {
    "kind": "dev",
    "methods": {},
    "version": 1
  },
  "userdoc": {
    "kind": "user",
    "methods": {},
    "version": 1
  }
}